{
  "contractName": "Ethpain",
  "abi": [
    {
      "constant": true,
      "inputs": [],
      "name": "name",
      "outputs": [
        {
          "name": "",
          "type": "string"
        }
      ],
      "payable": false,
      "stateMutability": "view",
      "type": "function"
    },
    {
      "constant": true,
      "inputs": [
        {
          "name": "",
          "type": "uint256"
        }
      ],
      "name": "parties",
      "outputs": [
        {
          "name": "",
          "type": "address"
        }
      ],
      "payable": false,
      "stateMutability": "view",
      "type": "function"
    },
    {
      "inputs": [
        {
          "name": "_wbi",
          "type": "address"
        },
        {
          "name": "_name",
          "type": "string"
        },
        {
          "name": "_seats",
          "type": "uint256"
        }
      ],
      "payable": true,
      "stateMutability": "payable",
      "type": "constructor"
    },
    {
      "constant": false,
      "inputs": [
        {
          "name": "_label",
          "type": "bytes32"
        },
        {
          "name": "_emoji",
          "type": "string"
        },
        {
          "name": "_description",
          "type": "string"
        },
        {
          "name": "_fake_name",
          "type": "string"
        },
        {
          "name": "_dr",
          "type": "string"
        }
      ],
      "name": "create_party",
      "outputs": [],
      "payable": false,
      "stateMutability": "nonpayable",
      "type": "function"
    },
    {
      "constant": true,
      "inputs": [
        {
          "name": "party_address",
          "type": "address"
        }
      ],
      "name": "read_party",
      "outputs": [
        {
          "name": "label",
          "type": "bytes32"
        },
        {
          "name": "emoji",
          "type": "string"
        },
        {
          "name": "description",
          "type": "string"
        },
        {
          "name": "fake_name",
          "type": "string"
        },
        {
          "name": "seats",
          "type": "uint256"
        }
      ],
      "payable": false,
      "stateMutability": "view",
      "type": "function"
    },
    {
      "constant": false,
      "inputs": [
        {
          "name": "proposal_description",
          "type": "string"
        },
        {
          "name": "proposal_dr",
          "type": "string"
        }
      ],
      "name": "create_proposal",
      "outputs": [
        {
          "name": "id",
          "type": "uint256"
        }
      ],
      "payable": false,
      "stateMutability": "nonpayable",
      "type": "function"
    },
    {
      "constant": false,
      "inputs": [
        {
          "name": "id",
          "type": "uint256"
        }
      ],
      "name": "create_elections",
      "outputs": [
        {
          "name": "description",
          "type": "string"
        },
        {
          "name": "dr",
          "type": "string"
        }
      ],
      "payable": false,
      "stateMutability": "nonpayable",
      "type": "function"
    },
    {
      "constant": true,
      "inputs": [
        {
          "name": "id",
          "type": "uint256"
        },
        {
          "name": "percentages",
          "type": "uint256[]"
        }
      ],
      "name": "read_proposal",
      "outputs": [
        {
          "name": "description",
          "type": "string"
        },
        {
          "name": "dr",
          "type": "string"
        }
      ],
      "payable": false,
      "stateMutability": "view",
      "type": "function"
    },
    {
      "constant": false,
      "inputs": [
        {
          "name": "id_proposals",
          "type": "uint256[]"
        },
        {
          "name": "percentages",
          "type": "uint256[]"
        }
      ],
      "name": "create_program",
      "outputs": [
        {
          "name": "_parties",
          "type": "address[]"
        }
      ],
      "payable": false,
      "stateMutability": "nonpayable",
      "type": "function"
    },
    {
      "constant": true,
      "inputs": [
        {
          "name": "party_address",
          "type": "address"
        }
      ],
      "name": "list_parties",
      "outputs": [
        {
          "name": "_parties",
          "type": "address[]"
        },
        {
          "name": "percentages",
          "type": "uint256[]"
        }
      ],
      "payable": false,
      "stateMutability": "view",
      "type": "function"
    },
    {
      "constant": true,
      "inputs": [
        {
          "name": "party_address",
          "type": "address"
        }
      ],
      "name": "read_program",
      "outputs": [
        {
          "name": "proposal_ids",
          "type": "uint256[]"
        },
        {
          "name": "percentages",
          "type": "uint256[]"
        }
      ],
      "payable": false,
      "stateMutability": "view",
      "type": "function"
    },
    {
      "constant": true,
      "inputs": [
        {
          "name": "id",
          "type": "uint256"
        },
        {
          "name": "_seats",
          "type": "uint256[]"
        }
      ],
      "name": "read_proposal_result",
      "outputs": [
        {
          "name": "bool_result",
          "type": "bool"
        }
      ],
      "payable": false,
      "stateMutability": "view",
      "type": "function"
    },
    {
      "constant": false,
      "inputs": [
        {
          "name": "_proposal_id",
          "type": "uint256"
        }
      ],
      "name": "update_seats",
      "outputs": [
        {
          "name": "funds",
          "type": "uint256"
        }
      ],
      "payable": false,
      "stateMutability": "nonpayable",
      "type": "function"
    },
    {
      "constant": false,
      "inputs": [
        {
          "name": "_proposal_id",
          "type": "uint256"
        }
      ],
      "name": "claim_funds",
      "outputs": [
        {
          "name": "funds",
          "type": "uint256"
        }
      ],
      "payable": false,
      "stateMutability": "nonpayable",
      "type": "function"
    }
  ],
  "bytecode": "0x6080604052604051620026e1380380620026e1833981018060405260608110156200002957600080fd5b810190808051906020019092919080516401000000008111156200004c57600080fd5b828101905060208101848111156200006357600080fd5b81518560018202830111640100000000821117156200008157600080fd5b5050929190602001805190602001909291905050503460048190555080600381905550826000806101000a81548173ffffffffffffffffffffffffffffffffffffffff021916908373ffffffffffffffffffffffffffffffffffffffff16021790555033600160006101000a81548173ffffffffffffffffffffffffffffffffffffffff021916908373ffffffffffffffffffffffffffffffffffffffff16021790555081600290805190602001906200013d92919062000147565b50505050620001f6565b828054600181600116156101000203166002900490600052602060002090601f016020900481019282601f106200018a57805160ff1916838001178555620001bb565b82800160010185558215620001bb579182015b82811115620001ba5782518255916020019190600101906200019d565b5b509050620001ca9190620001ce565b5090565b620001f391905b80821115620001ef576000816000905550600101620001d5565b5090565b90565b6124db80620002066000396000f3fe6080604052600436106100c5576000357c0100000000000000000000000000000000000000000000000000000000900463ffffffff16806306fdde03146100ca57806307c209e11461015a5780631681bcc41461017157806340a705891461029157806343608b4c1461037f5780636d4e564e146103eb57806370651a181461054457806373fd5da5146105bf5780637951745d146106125780639dd07d2414610629578063a8267e2d146108c0578063bc59052914610a70578063d5dd4ec014610abf575b600080fd5b3480156100d657600080fd5b506100df610c32565b6040518080602001828103825283818151815260200191508051906020019080838360005b8381101561011f578082015181840152602081019050610104565b50505050905090810190601f16801561014c5780820380516001836020036101000a031916815260200191505b509250505060405180910390f35b34801561016657600080fd5b5061016f610cd0565b005b34801561017d57600080fd5b506101aa6004803603602081101561019457600080fd5b8101908080359060200190929190505050610f94565b604051808060200180602001838103835285818151815260200191508051906020019080838360005b838110156101ee5780820151818401526020810190506101d3565b50505050905090810190601f16801561021b5780820380516001836020036101000a031916815260200191505b50838103825284818151815260200191508051906020019080838360005b83811015610254578082015181840152602081019050610239565b50505050905090810190601f1680156102815780820380516001836020036101000a031916815260200191505b5094505050505060405180910390f35b34801561029d57600080fd5b506102e0600480360360208110156102b457600080fd5b81019080803573ffffffffffffffffffffffffffffffffffffffff169060200190929190505050611104565b604051808060200180602001838103835285818151815260200191508051906020019060200280838360005b8381101561032757808201518184015260208101905061030c565b50505050905001838103825284818151815260200191508051906020019060200280838360005b8381101561036957808201518184015260208101905061034e565b5050505090500194505050505060405180910390f35b34801561038b57600080fd5b50610394611238565b6040518080602001828103825283818151815260200191508051906020019060200280838360005b838110156103d75780820151818401526020810190506103bc565b505050509050019250505060405180910390f35b3480156103f757600080fd5b506105426004803603604081101561040e57600080fd5b810190808035906020019064010000000081111561042b57600080fd5b82018360208201111561043d57600080fd5b8035906020019184602083028401116401000000008311171561045f57600080fd5b919080806020026020016040519081016040528093929190818152602001838360200280828437600081840152601f19601f820116905080830192505050505050509192919290803590602001906401000000008111156104bf57600080fd5b8201836020820111156104d157600080fd5b803590602001918460208302840111640100000000831117156104f357600080fd5b919080806020026020016040519081016040528093929190818152602001838360200280828437600081840152601f19601f8201169050808301925050505050505091929192905050506112c6565b005b34801561055057600080fd5b5061057d6004803603602081101561056757600080fd5b810190808035906020019092919050505061140b565b604051808273ffffffffffffffffffffffffffffffffffffffff1673ffffffffffffffffffffffffffffffffffffffff16815260200191505060405180910390f35b3480156105cb57600080fd5b506105f8600480360360208110156105e257600080fd5b8101908080359060200190929190505050611449565b604051808215151515815260200191505060405180910390f35b34801561061e57600080fd5b5061062761151b565b005b34801561063557600080fd5b506108be600480360360a081101561064c57600080fd5b81019080803590602001909291908035906020019064010000000081111561067357600080fd5b82018360208201111561068557600080fd5b803590602001918460018302840111640100000000831117156106a757600080fd5b91908080601f016020809104026020016040519081016040528093929190818152602001838380828437600081840152601f19601f8201169050808301925050505050505091929192908035906020019064010000000081111561070a57600080fd5b82018360208201111561071c57600080fd5b8035906020019184600183028401116401000000008311171561073e57600080fd5b91908080601f016020809104026020016040519081016040528093929190818152602001838380828437600081840152601f19601f820116905080830192505050505050509192919290803590602001906401000000008111156107a157600080fd5b8201836020820111156107b357600080fd5b803590602001918460018302840111640100000000831117156107d557600080fd5b91908080601f016020809104026020016040519081016040528093929190818152602001838380828437600081840152601f19601f8201169050808301925050505050505091929192908035906020019064010000000081111561083857600080fd5b82018360208201111561084a57600080fd5b8035906020019184600183028401116401000000008311171561086c57600080fd5b91908080601f016020809104026020016040519081016040528093929190818152602001838380828437600081840152601f19601f8201169050808301925050505050505091929192905050506116da565b005b3480156108cc57600080fd5b5061090f600480360360208110156108e357600080fd5b81019080803573ffffffffffffffffffffffffffffffffffffffff169060200190929190505050611984565b60405180868152602001806020018060200180602001858152602001848103845288818151815260200191508051906020019080838360005b83811015610963578082015181840152602081019050610948565b50505050905090810190601f1680156109905780820380516001836020036101000a031916815260200191505b50848103835287818151815260200191508051906020019080838360005b838110156109c95780820151818401526020810190506109ae565b50505050905090810190601f1680156109f65780820380516001836020036101000a031916815260200191505b50848103825286818151815260200191508051906020019080838360005b83811015610a2f578082015181840152602081019050610a14565b50505050905090810190601f168015610a5c5780820380516001836020036101000a031916815260200191505b509850505050505050505060405180910390f35b348015610a7c57600080fd5b50610aa960048036036020811015610a9357600080fd5b8101908080359060200190929190505050611cc0565b6040518082815260200191505060405180910390f35b348015610acb57600080fd5b50610c1c60048036036040811015610ae257600080fd5b8101908080359060200190640100000000811115610aff57600080fd5b820183602082011115610b1157600080fd5b80359060200191846001830284011164010000000083111715610b3357600080fd5b91908080601f016020809104026020016040519081016040528093929190818152602001838380828437600081840152601f19601f82011690508083019250505050505050919291929080359060200190640100000000811115610b9657600080fd5b820183602082011115610ba857600080fd5b80359060200191846001830284011164010000000083111715610bca57600080fd5b91908080601f016020809104026020016040519081016040528093929190818152602001838380828437600081840152601f19601f820116905080830192505050505050509192919290505050611ff2565b6040518082815260200191505060405180910390f35b60028054600181600116156101000203166002900480601f016020809104026020016040519081016040528092919081815260200182805460018160011615610100020316600290048015610cc85780601f10610c9d57610100808354040283529160200191610cc8565b820191906000526020600020905b815481529060010190602001808311610cab57829003601f168201915b505050505081565b6000600580549050905060008090505b81811015610f90576000600582815481101515610cf957fe5b9060005260206000200160009054906101000a900473ffffffffffffffffffffffffffffffffffffffff1690506060600760008373ffffffffffffffffffffffffffffffffffffffff1673ffffffffffffffffffffffffffffffffffffffff1681526020019081526020016000206005018054600181600116156101000203166002900480601f016020809104026020016040519081016040528092919081815260200182805460018160011615610100020316600290048015610dfe5780601f10610dd357610100808354040283529160200191610dfe565b820191906000526020600020905b815481529060010190602001808311610de157829003601f168201915b5050505050905060008060009054906101000a900473ffffffffffffffffffffffffffffffffffffffff1673ffffffffffffffffffffffffffffffffffffffff1663c8794e01836040518263ffffffff167c01000000000000000000000000000000000000000000000000000000000281526004018080602001828103825283818151815260200191508051906020019080838360005b83811015610eb0578082015181840152602081019050610e95565b50505050905090810190601f168015610edd5780820380516001836020036101000a031916815260200191505b5092505050602060405180830381600087803b158015610efc57600080fd5b505af1158015610f10573d6000803e3d6000fd5b505050506040513d6020811015610f2657600080fd5b8101908080519060200190929190505050905080600760008573ffffffffffffffffffffffffffffffffffffffff1673ffffffffffffffffffffffffffffffffffffffff168152602001908152602001600020600601819055505050508080600101915050610ce0565b5050565b6060806009600084815260200190815260200160002060000160096000858152602001908152602001600020600101818054600181600116156101000203166002900480601f0160208091040260200160405190810160405280929190818152602001828054600181600116156101000203166002900480156110585780601f1061102d57610100808354040283529160200191611058565b820191906000526020600020905b81548152906001019060200180831161103b57829003601f168201915b50505050509150808054600181600116156101000203166002900480601f0160208091040260200160405190810160405280929190818152602001828054600181600116156101000203166002900480156110f45780601f106110c9576101008083540402835291602001916110f4565b820191906000526020600020905b8154815290600101906020018083116110d757829003601f168201915b5050505050905091509150915091565b606080600860008473ffffffffffffffffffffffffffffffffffffffff1673ffffffffffffffffffffffffffffffffffffffff168152602001908152602001600020600001600860008573ffffffffffffffffffffffffffffffffffffffff1673ffffffffffffffffffffffffffffffffffffffff168152602001908152602001600020600101818054806020026020016040519081016040528092919081815260200182805480156111d657602002820191906000526020600020905b8154815260200190600101908083116111c2575b505050505091508080548060200260200160405190810160405280929190818152602001828054801561122857602002820191906000526020600020905b815481526020019060010190808311611214575b5050505050905091509150915091565b606060058054806020026020016040519081016040528092919081815260200182805480156112bc57602002820191906000526020600020905b8160009054906101000a900473ffffffffffffffffffffffffffffffffffffffff1673ffffffffffffffffffffffffffffffffffffffff1681526020019060010190808311611272575b5050505050905090565b81600860003373ffffffffffffffffffffffffffffffffffffffff1673ffffffffffffffffffffffffffffffffffffffff168152602001908152602001600020600001908051906020019061131c9291906122e7565b5080600860003373ffffffffffffffffffffffffffffffffffffffff1673ffffffffffffffffffffffffffffffffffffffff16815260200190815260200160002060010190805190602001906113739291906122e7565b506000825190506060816040519080825280602002602001820160405280156113ab5781602001602082028038833980820191505090505b50905080600860003373ffffffffffffffffffffffffffffffffffffffff1673ffffffffffffffffffffffffffffffffffffffff1681526020019081526020016000206002019080519060200190611404929190612334565b5050505050565b60058181548110151561141a57fe5b906000526020600020016000915054906101000a900473ffffffffffffffffffffffffffffffffffffffff1681565b60008060009054906101000a900473ffffffffffffffffffffffffffffffffffffffff1673ffffffffffffffffffffffffffffffffffffffff16631d8b7cc6836040518263ffffffff167c01000000000000000000000000000000000000000000000000000000000281526004018082815260200191505060206040518083038186803b1580156114d957600080fd5b505afa1580156114ed573d6000803e3d6000fd5b505050506040513d602081101561150357600080fd5b81019080805190602001909291905050509050919050565b6000600580549050905060008090505b818110156116d657600060058281548110151561154457fe5b9060005260206000200160009054906101000a900473ffffffffffffffffffffffffffffffffffffffff16905060008060009054906101000a900473ffffffffffffffffffffffffffffffffffffffff1673ffffffffffffffffffffffffffffffffffffffff166395538fd2600760008573ffffffffffffffffffffffffffffffffffffffff1673ffffffffffffffffffffffffffffffffffffffff168152602001908152602001600020600601546040518263ffffffff167c01000000000000000000000000000000000000000000000000000000000281526004018082815260200191505060206040518083038186803b15801561164357600080fd5b505afa158015611657573d6000803e3d6000fd5b505050506040513d602081101561166d57600080fd5b8101908080519060200190929190505050905080600760008473ffffffffffffffffffffffffffffffffffffffff1673ffffffffffffffffffffffffffffffffffffffff168152602001908152602001600020600401819055505050808060010191505061152b565b5050565b60053390806001815401808255809150509060018203906000526020600020016000909192909190916101000a81548173ffffffffffffffffffffffffffffffffffffffff021916908373ffffffffffffffffffffffffffffffffffffffff1602179055505084600760003373ffffffffffffffffffffffffffffffffffffffff1673ffffffffffffffffffffffffffffffffffffffff1681526020019081526020016000206000018190555083600760003373ffffffffffffffffffffffffffffffffffffffff1673ffffffffffffffffffffffffffffffffffffffff16815260200190815260200160002060020190805190602001906117dd9291906123da565b5082600760003373ffffffffffffffffffffffffffffffffffffffff1673ffffffffffffffffffffffffffffffffffffffff16815260200190815260200160002060030190805190602001906118349291906123da565b5081600760003373ffffffffffffffffffffffffffffffffffffffff1673ffffffffffffffffffffffffffffffffffffffff168152602001908152602001600020600101908051906020019061188b9291906123da565b506000600760003373ffffffffffffffffffffffffffffffffffffffff1673ffffffffffffffffffffffffffffffffffffffff1681526020019081526020016000206004018190555080600760003373ffffffffffffffffffffffffffffffffffffffff1673ffffffffffffffffffffffffffffffffffffffff168152602001908152602001600020600501908051906020019061192a9291906123da565b50336006600087815260200190815260200160002060006101000a81548173ffffffffffffffffffffffffffffffffffffffff021916908373ffffffffffffffffffffffffffffffffffffffff1602179055505050505050565b600060608060606000600760003373ffffffffffffffffffffffffffffffffffffffff1673ffffffffffffffffffffffffffffffffffffffff16815260200190815260200160002060000154600760003373ffffffffffffffffffffffffffffffffffffffff1673ffffffffffffffffffffffffffffffffffffffff168152602001908152602001600020600201600760003373ffffffffffffffffffffffffffffffffffffffff1673ffffffffffffffffffffffffffffffffffffffff168152602001908152602001600020600301600760008a73ffffffffffffffffffffffffffffffffffffffff1673ffffffffffffffffffffffffffffffffffffffff168152602001908152602001600020600101600760008b73ffffffffffffffffffffffffffffffffffffffff1673ffffffffffffffffffffffffffffffffffffffff16815260200190815260200160002060040154838054600181600116156101000203166002900480601f016020809104026020016040519081016040528092919081815260200182805460018160011615610100020316600290048015611b6e5780601f10611b4357610100808354040283529160200191611b6e565b820191906000526020600020905b815481529060010190602001808311611b5157829003601f168201915b50505050509350828054600181600116156101000203166002900480601f016020809104026020016040519081016040528092919081815260200182805460018160011615610100020316600290048015611c0a5780601f10611bdf57610100808354040283529160200191611c0a565b820191906000526020600020905b815481529060010190602001808311611bed57829003601f168201915b50505050509250818054600181600116156101000203166002900480601f016020809104026020016040519081016040528092919081815260200182805460018160011615610100020316600290048015611ca65780601f10611c7b57610100808354040283529160200191611ca6565b820191906000526020600020905b815481529060010190602001808311611c8957829003601f168201915b505050505091509450945094509450945091939590929450565b600080611ccc83611449565b9050801515611cda57600080fd5b6000600760003373ffffffffffffffffffffffffffffffffffffffff1673ffffffffffffffffffffffffffffffffffffffff1681526020019081526020016000206004015490506000600860003373ffffffffffffffffffffffffffffffffffffffff1673ffffffffffffffffffffffffffffffffffffffff1681526020019081526020016000206000018054905090506000809050600080905060008090505b83811015611ed05787600860003373ffffffffffffffffffffffffffffffffffffffff1673ffffffffffffffffffffffffffffffffffffffff16815260200190815260200160002060000182815481101515611dd357fe5b90600052602060002001541415611ec357600860003373ffffffffffffffffffffffffffffffffffffffff1673ffffffffffffffffffffffffffffffffffffffff16815260200190815260200160002060020181815481101515611e3357fe5b90600052602060002090602091828204019190069054906101000a900460ff16151515611e5f57600080fd5b600860003373ffffffffffffffffffffffffffffffffffffffff1673ffffffffffffffffffffffffffffffffffffffff16815260200190815260200160002060010181815481101515611eae57fe5b90600052602060002001549250809150611ed0565b8080600101915050611d7b565b506000611f216064611f13600354611f0587611ef78b60045461218790919063ffffffff16565b61218790919063ffffffff16565b61225490919063ffffffff16565b61225490919063ffffffff16565b90503373ffffffffffffffffffffffffffffffffffffffff166108fc829081150290604051600060405180830381858888f19350505050158015611f69573d6000803e3d6000fd5b506001600860003373ffffffffffffffffffffffffffffffffffffffff1673ffffffffffffffffffffffffffffffffffffffff16815260200190815260200160002060020183815481101515611fbb57fe5b90600052602060002090602091828204019190066101000a81548160ff021916908315150217905550809650505050505050919050565b6000806000809054906101000a900473ffffffffffffffffffffffffffffffffffffffff1673ffffffffffffffffffffffffffffffffffffffff1663c8794e01846040518263ffffffff167c01000000000000000000000000000000000000000000000000000000000281526004018080602001828103825283818151815260200191508051906020019080838360005b8381101561209e578082015181840152602081019050612083565b50505050905090810190601f1680156120cb5780820380516001836020036101000a031916815260200191505b5092505050602060405180830381600087803b1580156120ea57600080fd5b505af11580156120fe573d6000803e3d6000fd5b505050506040513d602081101561211457600080fd5b81019080805190602001909291905050509050836009600083815260200190815260200160002060000190805190602001906121519291906123da565b508260096000838152602001908152602001600020600101908051906020019061217c9291906123da565b508091505092915050565b60008083141561219a576000905061224e565b600082840290508284828115156121ad57fe5b04141515612249576040517f08c379a00000000000000000000000000000000000000000000000000000000081526004018080602001828103825260218152602001807f536166654d6174683a206d756c7469706c69636174696f6e206f766572666c6f81526020017f770000000000000000000000000000000000000000000000000000000000000081525060400191505060405180910390fd5b809150505b92915050565b600080821115156122cd576040517f08c379a000000000000000000000000000000000000000000000000000000000815260040180806020018281038252601a8152602001807f536166654d6174683a206469766973696f6e206279207a65726f00000000000081525060200191505060405180910390fd5b600082848115156122da57fe5b0490508091505092915050565b828054828255906000526020600020908101928215612323579160200282015b82811115612322578251825591602001919060010190612307565b5b509050612330919061245a565b5090565b82805482825590600052602060002090601f016020900481019282156123c95791602002820160005b8382111561239a57835183826101000a81548160ff021916908315150217905550926020019260010160208160000104928301926001030261235d565b80156123c75782816101000a81549060ff021916905560010160208160000104928301926001030261239a565b505b5090506123d6919061247f565b5090565b828054600181600116156101000203166002900490600052602060002090601f016020900481019282601f1061241b57805160ff1916838001178555612449565b82800160010185558215612449579182015b8281111561244857825182559160200191906001019061242d565b5b509050612456919061245a565b5090565b61247c91905b80821115612478576000816000905550600101612460565b5090565b90565b6124ac91905b808211156124a857600081816101000a81549060ff021916905550600101612485565b5090565b9056fea165627a7a72305820b12482246b71d0d93bf7b7d70bd41fa7ff2c083420960abf929979c5df3eac770029",
  "source": "pragma solidity ^0.5.0;\n\nimport \"./SafeMath.sol\";\nimport \"./WitnetBridgeInterface.sol\";\n\ncontract Ethpain {\n\n  using SafeMath for uint256;\n\n  WitnetBridgeInterface wbi;\n\n  address owner;\n  string public name;\n  uint total_seats;\n  uint256 total_funding;\n  // bytes public election_wdr;\n\n  struct Party {\n    bytes32 label;\n    string fake_name;\n    string emoji;\n    string description;\n    uint seats;\n    string dr;\n    uint256 dr_id;\n  }\n\n  struct Proposal {\n    string description;\n    string data_request;\n  }\n\n  struct Program {\n    uint256[] id_proposals;\n    uint[] percentages;\n    bool[] claimed;\n  }\n\n  address[] public parties;\n  mapping (bytes32 => address) party_addresses;\n\n  mapping (address => Party) party_map;\n  mapping (address => Program) program_map;\n  mapping (uint256 => Proposal) proposal_map;\n\n  constructor (address _wbi, string memory _name, uint _seats) public payable {\n    total_funding = msg.value;\n    total_seats = _seats;\n    wbi = WitnetBridgeInterface(_wbi);\n    owner = msg.sender;\n    name = _name;\n    //election_wdr = _election_wdr;\n    // wbi.post_dr(election_wdr);\n  }\n\n  function create_party(bytes32 _label, string memory _emoji, string memory _description, string memory _fake_name, string memory _dr) public {\n    parties.push(msg.sender);\n    party_map[msg.sender].label = _label;\n    party_map[msg.sender].emoji = _emoji;\n    party_map[msg.sender].description = _description;\n    party_map[msg.sender].fake_name = _fake_name;\n    party_map[msg.sender].seats = 0;\n    party_map[msg.sender].dr = _dr;\n    party_addresses[_label] = msg.sender;\n  }\n\n  function read_party(address party_address) public view returns(bytes32 label, string memory emoji, string memory description, string memory fake_name, uint seats) {\n    return (party_map[msg.sender].label, party_map[msg.sender].emoji, party_map[msg.sender].description, party_map[party_address].fake_name, party_map[party_address].seats);\n  }\n\n  function create_proposal(string memory proposal_description, string memory proposal_dr) public returns(uint256 id) {\n    uint256 dr_id = wbi.post_dr(proposal_dr);\n    proposal_map[dr_id].description = proposal_description;\n    proposal_map[dr_id].data_request = proposal_dr;\n    return dr_id;\n  }\n\n  function create_elections() public {\n    uint len = parties.length;\n    for (uint i = 0; i < len; i++) {\n      address _party_address = parties[i];\n      string memory _dr = party_map[_party_address].dr;\n\n      uint256 _dr_id = wbi.post_dr(_dr);\n      party_map[_party_address].dr_id = _dr_id;\n    }\n  }\n\n  function read_proposal(uint256 id) public view returns(string memory description, string memory dr) {\n    return (proposal_map[id].description, proposal_map[id].data_request);\n  }\n\n  function create_program(uint256[] memory id_proposals, uint256[] memory percentages) public {\n    program_map[msg.sender].id_proposals = id_proposals;\n    program_map[msg.sender].percentages = percentages;\n\n    uint len = id_proposals.length;\n    bool[] memory _claimed = new bool[](len);\n\n    program_map[msg.sender].claimed = _claimed;\n  }\n\n  function list_parties() public view returns (address[] memory _parties) {\n    return parties;\n  }\n\n  function read_program(address party_address) public view returns(uint256[] memory proposal_ids, uint[] memory percentages) {\n    return (program_map[party_address].id_proposals, program_map[party_address].percentages);\n  }\n\n  function read_proposal_result(uint256 id) public view returns(bool bool_result) {\n    return wbi.read_result(id);\n  }\n\n  function update_seats() public {\n    uint len = parties.length;\n    for (uint i = 0; i < len; i++) {\n      address _party_address = parties[i];\n      uint _seats = wbi.read_result_election(party_map[_party_address].dr_id);\n      party_map[_party_address].seats = _seats;\n    }\n  }\n\n  function claim_funds(uint256 _proposal_id) public returns(uint256 funds) {\n    bool succeded = read_proposal_result(_proposal_id);\n    require(succeded);\n\n    uint _seats = party_map[msg.sender].seats;\n\n    uint _len = program_map[msg.sender].id_proposals.length;\n    uint256 _percent = 0;\n    uint index = 0;\n    for (uint i = 0; i < _len; i++) {\n      if (program_map[msg.sender].id_proposals[i] == _proposal_id) {\n        require(!program_map[msg.sender].claimed[i]);\n        _percent = program_map[msg.sender].percentages[i];\n        index = i;\n        break;\n      }\n    }\n    uint256 claimed_funds = total_funding.mul(_seats).mul(_percent).div(total_seats).div(100);\n    msg.sender.transfer(claimed_funds);\n\n    program_map[msg.sender].claimed[index] = true;\n\n    return claimed_funds;\n  }\n}\n",
  "sourcePath": "/home/tomastrg/development/ffzz-contracts/contracts/Ethpain.sol",
  "compiler": {
    "name": "solc",
    "version": "0.5.0+commit.1d4f565a.Emscripten.clang"
  },
  "schemaVersion": "3.0.9",
  "updatedAt": "2019-05-25T21:44:10.102Z",
  "devdoc": {
    "methods": {}
  },
  "userdoc": {
    "methods": {}
  }
}