{
  "contractName": "Ethpain",
  "abi": [
    {
      "constant": true,
      "inputs": [],
      "name": "name",
      "outputs": [
        {
          "name": "",
          "type": "string"
        }
      ],
      "payable": false,
      "stateMutability": "view",
      "type": "function"
    },
    {
      "inputs": [
        {
          "name": "",
          "type": "uint256"
        },
        {
          "name": "_name",
          "type": "string"
        }
      ],
      "payable": false,
      "stateMutability": "view",
      "type": "function",
      "constant": true,
      "name": "parties",
      "outputs": [
        {
          "name": "",
          "type": "address"
        }
      ]
    },
    {
      "inputs": [
        {
          "name": "_wbi",
          "type": "address"
        },
        {
          "name": "_name",
          "type": "string"
        },
        {
          "name": "_seats",
          "type": "uint256"
        }
      ],
      "payable": true,
      "stateMutability": "payable",
      "type": "constructor"
    },
    {
      "constant": false,
      "inputs": [
        {
          "name": "_label",
          "type": "bytes32"
        },
        {
          "name": "_emoji",
          "type": "string"
        },
        {
          "name": "_description",
          "type": "string"
        },
        {
          "name": "_fake_name",
          "type": "string"
        }
      ],
      "name": "create_party",
      "outputs": [],
      "payable": false,
      "stateMutability": "nonpayable",
      "type": "function"
    },
    {
      "constant": true,
      "inputs": [
        {
          "name": "party_address",
          "type": "address"
        }
      ],
      "name": "read_party",
      "outputs": [
        {
          "name": "label",
          "type": "bytes32"
        },
        {
          "name": "emoji",
          "type": "string"
        },
        {
          "name": "description",
          "type": "string"
        },
        {
          "name": "fake_name",
          "type": "string"
        },
        {
          "name": "seats",
          "type": "uint256"
        }
      ],
      "payable": false,
      "stateMutability": "view",
      "type": "function"
    },
    {
      "constant": false,
      "inputs": [
        {
          "name": "proposal_description",
          "type": "string"
        },
        {
          "name": "proposal_dr",
          "type": "string"
        }
      ],
      "name": "create_proposal",
      "outputs": [
        {
          "name": "id",
          "type": "uint256"
        }
      ],
      "payable": false,
      "stateMutability": "nonpayable",
      "type": "function"
    },
    {
      "constant": true,
      "inputs": [
        {
          "name": "id",
          "type": "uint256"
        }
      ],
      "name": "read_proposal",
      "outputs": [
        {
          "name": "description",
          "type": "string"
        },
        {
          "name": "dr",
          "type": "string"
        }
      ],
      "payable": false,
      "stateMutability": "view",
      "type": "function"
    },
    {
      "constant": false,
      "inputs": [
        {
          "name": "id_proposals",
          "type": "uint256[]"
        },
        {
          "name": "percentages",
          "type": "uint256[]"
        }
      ],
      "name": "create_program",
      "outputs": [],
      "payable": false,
      "stateMutability": "nonpayable",
      "type": "function"
    },
    {
      "constant": true,
      "inputs": [],
      "name": "list_parties",
      "outputs": [
        {
          "name": "_parties",
          "type": "address[]"
        }
      ],
      "payable": false,
      "stateMutability": "view",
      "type": "function"
    },
    {
      "constant": true,
      "inputs": [
        {
          "name": "party_address",
          "type": "address"
        }
      ],
      "name": "read_program",
      "outputs": [
        {
          "name": "proposal_ids",
          "type": "uint256[]"
        },
        {
          "name": "percentages",
          "type": "uint256[]"
        }
      ],
      "payable": false,
      "stateMutability": "view",
      "type": "function"
    },
    {
      "constant": true,
      "inputs": [
        {
          "name": "id",
          "type": "uint256"
        }
      ],
      "name": "read_proposal_result",
      "outputs": [
        {
          "name": "bool_result",
          "type": "bool"
        }
      ],
      "payable": false,
      "stateMutability": "view",
      "type": "function"
    },
    {
      "constant": false,
      "inputs": [
        {
          "name": "_labels",
          "type": "bytes32[]"
        },
        {
          "name": "_seats",
          "type": "uint256[]"
        }
      ],
      "name": "post_seats",
      "outputs": [],
      "payable": false,
      "stateMutability": "nonpayable",
      "type": "function"
    },
    {
      "constant": false,
      "inputs": [
        {
          "name": "_proposal_id",
          "type": "uint256"
        }
      ],
      "name": "claim_funds",
      "outputs": [
        {
          "name": "funds",
          "type": "uint256"
        }
      ],
      "payable": false,
      "stateMutability": "nonpayable",
      "type": "function"
    }
  ],
  "bytecode": "0x60806040526040516200236438038062002364833981018060405260608110156200002957600080fd5b810190808051906020019092919080516401000000008111156200004c57600080fd5b828101905060208101848111156200006357600080fd5b81518560018202830111640100000000821117156200008157600080fd5b5050929190602001805190602001909291905050503460048190555080600381905550826000806101000a81548173ffffffffffffffffffffffffffffffffffffffff021916908373ffffffffffffffffffffffffffffffffffffffff16021790555033600160006101000a81548173ffffffffffffffffffffffffffffffffffffffff021916908373ffffffffffffffffffffffffffffffffffffffff16021790555081600290805190602001906200013d92919062000147565b50505050620001f6565b828054600181600116156101000203166002900490600052602060002090601f016020900481019282601f106200018a57805160ff1916838001178555620001bb565b82800160010185558215620001bb579182015b82811115620001ba5782518255916020019190600101906200019d565b5b509050620001ca9190620001ce565b5090565b620001f391905b80821115620001ef576000816000905550600101620001d5565b5090565b90565b61215e80620002066000396000f3fe6080604052600436106100ba576000357c0100000000000000000000000000000000000000000000000000000000900463ffffffff16806306fdde03146100bf5780631681bcc41461014f578063265e4e321461026f57806329581d22146103c857806340a70589146105c857806343608b4c146106b65780636d4e564e1461072257806370651a181461087b57806373fd5da5146108f6578063a8267e2d14610949578063bc59052914610af9578063d5dd4ec014610b48575b600080fd5b3480156100cb57600080fd5b506100d4610cbb565b6040518080602001828103825283818151815260200191508051906020019080838360005b838110156101145780820151818401526020810190506100f9565b50505050905090810190601f1680156101415780820380516001836020036101000a031916815260200191505b509250505060405180910390f35b34801561015b57600080fd5b506101886004803603602081101561017257600080fd5b8101908080359060200190929190505050610d59565b604051808060200180602001838103835285818151815260200191508051906020019080838360005b838110156101cc5780820151818401526020810190506101b1565b50505050905090810190601f1680156101f95780820380516001836020036101000a031916815260200191505b50838103825284818151815260200191508051906020019080838360005b83811015610232578082015181840152602081019050610217565b50505050905090810190601f16801561025f5780820380516001836020036101000a031916815260200191505b5094505050505060405180910390f35b34801561027b57600080fd5b506103c66004803603604081101561029257600080fd5b81019080803590602001906401000000008111156102af57600080fd5b8201836020820111156102c157600080fd5b803590602001918460208302840111640100000000831117156102e357600080fd5b919080806020026020016040519081016040528093929190818152602001838360200280828437600081840152601f19601f8201169050808301925050505050505091929192908035906020019064010000000081111561034357600080fd5b82018360208201111561035557600080fd5b8035906020019184602083028401116401000000008311171561037757600080fd5b919080806020026020016040519081016040528093929190818152602001838360200280828437600081840152601f19601f820116905080830192505050505050509192919290505050610ec9565b005b3480156103d457600080fd5b506105c6600480360360808110156103eb57600080fd5b81019080803590602001909291908035906020019064010000000081111561041257600080fd5b82018360208201111561042457600080fd5b8035906020019184600183028401116401000000008311171561044657600080fd5b91908080601f016020809104026020016040519081016040528093929190818152602001838380828437600081840152601f19601f820116905080830192505050505050509192919290803590602001906401000000008111156104a957600080fd5b8201836020820111156104bb57600080fd5b803590602001918460018302840111640100000000831117156104dd57600080fd5b91908080601f016020809104026020016040519081016040528093929190818152602001838380828437600081840152601f19601f8201169050808301925050505050505091929192908035906020019064010000000081111561054057600080fd5b82018360208201111561055257600080fd5b8035906020019184600183028401116401000000008311171561057457600080fd5b91908080601f016020809104026020016040519081016040528093929190818152602001838380828437600081840152601f19601f820116905080830192505050505050509192919290505050610f9e565b005b3480156105d457600080fd5b50610617600480360360208110156105eb57600080fd5b81019080803573ffffffffffffffffffffffffffffffffffffffff1690602001909291905050506111f0565b604051808060200180602001838103835285818151815260200191508051906020019060200280838360005b8381101561065e578082015181840152602081019050610643565b50505050905001838103825284818151815260200191508051906020019060200280838360005b838110156106a0578082015181840152602081019050610685565b5050505090500194505050505060405180910390f35b3480156106c257600080fd5b506106cb611324565b6040518080602001828103825283818151815260200191508051906020019060200280838360005b8381101561070e5780820151818401526020810190506106f3565b505050509050019250505060405180910390f35b34801561072e57600080fd5b506108796004803603604081101561074557600080fd5b810190808035906020019064010000000081111561076257600080fd5b82018360208201111561077457600080fd5b8035906020019184602083028401116401000000008311171561079657600080fd5b919080806020026020016040519081016040528093929190818152602001838360200280828437600081840152601f19601f820116905080830192505050505050509192919290803590602001906401000000008111156107f657600080fd5b82018360208201111561080857600080fd5b8035906020019184602083028401116401000000008311171561082a57600080fd5b919080806020026020016040519081016040528093929190818152602001838360200280828437600081840152601f19601f8201169050808301925050505050505091929192905050506113b2565b005b34801561088757600080fd5b506108b46004803603602081101561089e57600080fd5b81019080803590602001909291905050506114f7565b604051808273ffffffffffffffffffffffffffffffffffffffff1673ffffffffffffffffffffffffffffffffffffffff16815260200191505060405180910390f35b34801561090257600080fd5b5061092f6004803603602081101561091957600080fd5b8101908080359060200190929190505050611535565b604051808215151515815260200191505060405180910390f35b34801561095557600080fd5b506109986004803603602081101561096c57600080fd5b81019080803573ffffffffffffffffffffffffffffffffffffffff169060200190929190505050611607565b60405180868152602001806020018060200180602001858152602001848103845288818151815260200191508051906020019080838360005b838110156109ec5780820151818401526020810190506109d1565b50505050905090810190601f168015610a195780820380516001836020036101000a031916815260200191505b50848103835287818151815260200191508051906020019080838360005b83811015610a52578082015181840152602081019050610a37565b50505050905090810190601f168015610a7f5780820380516001836020036101000a031916815260200191505b50848103825286818151815260200191508051906020019080838360005b83811015610ab8578082015181840152602081019050610a9d565b50505050905090810190601f168015610ae55780820380516001836020036101000a031916815260200191505b509850505050505050505060405180910390f35b348015610b0557600080fd5b50610b3260048036036020811015610b1c57600080fd5b8101908080359060200190929190505050611943565b6040518082815260200191505060405180910390f35b348015610b5457600080fd5b50610ca560048036036040811015610b6b57600080fd5b8101908080359060200190640100000000811115610b8857600080fd5b820183602082011115610b9a57600080fd5b80359060200191846001830284011164010000000083111715610bbc57600080fd5b91908080601f016020809104026020016040519081016040528093929190818152602001838380828437600081840152601f19601f82011690508083019250505050505050919291929080359060200190640100000000811115610c1f57600080fd5b820183602082011115610c3157600080fd5b80359060200191846001830284011164010000000083111715610c5357600080fd5b91908080601f016020809104026020016040519081016040528093929190818152602001838380828437600081840152601f19601f820116905080830192505050505050509192919290505050611c75565b6040518082815260200191505060405180910390f35b60028054600181600116156101000203166002900480601f016020809104026020016040519081016040528092919081815260200182805460018160011615610100020316600290048015610d515780601f10610d2657610100808354040283529160200191610d51565b820191906000526020600020905b815481529060010190602001808311610d3457829003601f168201915b505050505081565b6060806009600084815260200190815260200160002060000160096000858152602001908152602001600020600101818054600181600116156101000203166002900480601f016020809104026020016040519081016040528092919081815260200182805460018160011615610100020316600290048015610e1d5780601f10610df257610100808354040283529160200191610e1d565b820191906000526020600020905b815481529060010190602001808311610e0057829003601f168201915b50505050509150808054600181600116156101000203166002900480601f016020809104026020016040519081016040528092919081815260200182805460018160011615610100020316600290048015610eb95780601f10610e8e57610100808354040283529160200191610eb9565b820191906000526020600020905b815481529060010190602001808311610e9c57829003601f168201915b5050505050905091509150915091565b60008251905060008090505b81811015610f98576000600660008684815181101515610ef157fe5b90602001906020020151815260200190815260200160002060009054906101000a900473ffffffffffffffffffffffffffffffffffffffff1690508382815181101515610f3a57fe5b90602001906020020151600760008373ffffffffffffffffffffffffffffffffffffffff1673ffffffffffffffffffffffffffffffffffffffff16815260200190815260200160002060040181905550508080600101915050610ed5565b50505050565b60053390806001815401808255809150509060018203906000526020600020016000909192909190916101000a81548173ffffffffffffffffffffffffffffffffffffffff021916908373ffffffffffffffffffffffffffffffffffffffff1602179055505083600760003373ffffffffffffffffffffffffffffffffffffffff1673ffffffffffffffffffffffffffffffffffffffff1681526020019081526020016000206000018190555082600760003373ffffffffffffffffffffffffffffffffffffffff1673ffffffffffffffffffffffffffffffffffffffff16815260200190815260200160002060020190805190602001906110a1929190611f6a565b5081600760003373ffffffffffffffffffffffffffffffffffffffff1673ffffffffffffffffffffffffffffffffffffffff16815260200190815260200160002060030190805190602001906110f8929190611f6a565b5080600760003373ffffffffffffffffffffffffffffffffffffffff1673ffffffffffffffffffffffffffffffffffffffff168152602001908152602001600020600101908051906020019061114f929190611f6a565b506000600760003373ffffffffffffffffffffffffffffffffffffffff1673ffffffffffffffffffffffffffffffffffffffff16815260200190815260200160002060040181905550336006600086815260200190815260200160002060006101000a81548173ffffffffffffffffffffffffffffffffffffffff021916908373ffffffffffffffffffffffffffffffffffffffff16021790555050505050565b606080600860008473ffffffffffffffffffffffffffffffffffffffff1673ffffffffffffffffffffffffffffffffffffffff168152602001908152602001600020600001600860008573ffffffffffffffffffffffffffffffffffffffff1673ffffffffffffffffffffffffffffffffffffffff168152602001908152602001600020600101818054806020026020016040519081016040528092919081815260200182805480156112c257602002820191906000526020600020905b8154815260200190600101908083116112ae575b505050505091508080548060200260200160405190810160405280929190818152602001828054801561131457602002820191906000526020600020905b815481526020019060010190808311611300575b5050505050905091509150915091565b606060058054806020026020016040519081016040528092919081815260200182805480156113a857602002820191906000526020600020905b8160009054906101000a900473ffffffffffffffffffffffffffffffffffffffff1673ffffffffffffffffffffffffffffffffffffffff168152602001906001019080831161135e575b5050505050905090565b81600860003373ffffffffffffffffffffffffffffffffffffffff1673ffffffffffffffffffffffffffffffffffffffff1681526020019081526020016000206000019080519060200190611408929190611fea565b5080600860003373ffffffffffffffffffffffffffffffffffffffff1673ffffffffffffffffffffffffffffffffffffffff168152602001908152602001600020600101908051906020019061145f929190611fea565b506000825190506060816040519080825280602002602001820160405280156114975781602001602082028038833980820191505090505b50905080600860003373ffffffffffffffffffffffffffffffffffffffff1673ffffffffffffffffffffffffffffffffffffffff16815260200190815260200160002060020190805190602001906114f0929190612037565b5050505050565b60058181548110151561150657fe5b906000526020600020016000915054906101000a900473ffffffffffffffffffffffffffffffffffffffff1681565b60008060009054906101000a900473ffffffffffffffffffffffffffffffffffffffff1673ffffffffffffffffffffffffffffffffffffffff16631d8b7cc6836040518263ffffffff167c01000000000000000000000000000000000000000000000000000000000281526004018082815260200191505060206040518083038186803b1580156115c557600080fd5b505afa1580156115d9573d6000803e3d6000fd5b505050506040513d60208110156115ef57600080fd5b81019080805190602001909291905050509050919050565b600060608060606000600760003373ffffffffffffffffffffffffffffffffffffffff1673ffffffffffffffffffffffffffffffffffffffff16815260200190815260200160002060000154600760003373ffffffffffffffffffffffffffffffffffffffff1673ffffffffffffffffffffffffffffffffffffffff168152602001908152602001600020600201600760003373ffffffffffffffffffffffffffffffffffffffff1673ffffffffffffffffffffffffffffffffffffffff168152602001908152602001600020600301600760008a73ffffffffffffffffffffffffffffffffffffffff1673ffffffffffffffffffffffffffffffffffffffff168152602001908152602001600020600101600760008b73ffffffffffffffffffffffffffffffffffffffff1673ffffffffffffffffffffffffffffffffffffffff16815260200190815260200160002060040154838054600181600116156101000203166002900480601f0160208091040260200160405190810160405280929190818152602001828054600181600116156101000203166002900480156117f15780601f106117c6576101008083540402835291602001916117f1565b820191906000526020600020905b8154815290600101906020018083116117d457829003601f168201915b50505050509350828054600181600116156101000203166002900480601f01602080910402602001604051908101604052809291908181526020018280546001816001161561010002031660029004801561188d5780601f106118625761010080835404028352916020019161188d565b820191906000526020600020905b81548152906001019060200180831161187057829003601f168201915b50505050509250818054600181600116156101000203166002900480601f0160208091040260200160405190810160405280929190818152602001828054600181600116156101000203166002900480156119295780601f106118fe57610100808354040283529160200191611929565b820191906000526020600020905b81548152906001019060200180831161190c57829003601f168201915b505050505091509450945094509450945091939590929450565b60008061194f83611535565b905080151561195d57600080fd5b6000600760003373ffffffffffffffffffffffffffffffffffffffff1673ffffffffffffffffffffffffffffffffffffffff1681526020019081526020016000206004015490506000600860003373ffffffffffffffffffffffffffffffffffffffff1673ffffffffffffffffffffffffffffffffffffffff1681526020019081526020016000206000018054905090506000809050600080905060008090505b83811015611b535787600860003373ffffffffffffffffffffffffffffffffffffffff1673ffffffffffffffffffffffffffffffffffffffff16815260200190815260200160002060000182815481101515611a5657fe5b90600052602060002001541415611b4657600860003373ffffffffffffffffffffffffffffffffffffffff1673ffffffffffffffffffffffffffffffffffffffff16815260200190815260200160002060020181815481101515611ab657fe5b90600052602060002090602091828204019190069054906101000a900460ff16151515611ae257600080fd5b600860003373ffffffffffffffffffffffffffffffffffffffff1673ffffffffffffffffffffffffffffffffffffffff16815260200190815260200160002060010181815481101515611b3157fe5b90600052602060002001549250809150611b53565b80806001019150506119fe565b506000611ba46064611b96600354611b8887611b7a8b600454611e0a90919063ffffffff16565b611e0a90919063ffffffff16565b611ed790919063ffffffff16565b611ed790919063ffffffff16565b90503373ffffffffffffffffffffffffffffffffffffffff166108fc829081150290604051600060405180830381858888f19350505050158015611bec573d6000803e3d6000fd5b506001600860003373ffffffffffffffffffffffffffffffffffffffff1673ffffffffffffffffffffffffffffffffffffffff16815260200190815260200160002060020183815481101515611c3e57fe5b90600052602060002090602091828204019190066101000a81548160ff021916908315150217905550809650505050505050919050565b6000806000809054906101000a900473ffffffffffffffffffffffffffffffffffffffff1673ffffffffffffffffffffffffffffffffffffffff1663c8794e01846040518263ffffffff167c01000000000000000000000000000000000000000000000000000000000281526004018080602001828103825283818151815260200191508051906020019080838360005b83811015611d21578082015181840152602081019050611d06565b50505050905090810190601f168015611d4e5780820380516001836020036101000a031916815260200191505b5092505050602060405180830381600087803b158015611d6d57600080fd5b505af1158015611d81573d6000803e3d6000fd5b505050506040513d6020811015611d9757600080fd5b8101908080519060200190929190505050905083600960008381526020019081526020016000206000019080519060200190611dd4929190611f6a565b5082600960008381526020019081526020016000206001019080519060200190611dff929190611f6a565b508091505092915050565b600080831415611e1d5760009050611ed1565b60008284029050828482811515611e3057fe5b04141515611ecc576040517f08c379a00000000000000000000000000000000000000000000000000000000081526004018080602001828103825260218152602001807f536166654d6174683a206d756c7469706c69636174696f6e206f766572666c6f81526020017f770000000000000000000000000000000000000000000000000000000000000081525060400191505060405180910390fd5b809150505b92915050565b60008082111515611f50576040517f08c379a000000000000000000000000000000000000000000000000000000000815260040180806020018281038252601a8152602001807f536166654d6174683a206469766973696f6e206279207a65726f00000000000081525060200191505060405180910390fd5b60008284811515611f5d57fe5b0490508091505092915050565b828054600181600116156101000203166002900490600052602060002090601f016020900481019282601f10611fab57805160ff1916838001178555611fd9565b82800160010185558215611fd9579182015b82811115611fd8578251825591602001919060010190611fbd565b5b509050611fe691906120dd565b5090565b828054828255906000526020600020908101928215612026579160200282015b8281111561202557825182559160200191906001019061200a565b5b50905061203391906120dd565b5090565b82805482825590600052602060002090601f016020900481019282156120cc5791602002820160005b8382111561209d57835183826101000a81548160ff0219169083151502179055509260200192600101602081600001049283019260010302612060565b80156120ca5782816101000a81549060ff021916905560010160208160000104928301926001030261209d565b505b5090506120d99190612102565b5090565b6120ff91905b808211156120fb5760008160009055506001016120e3565b5090565b90565b61212f91905b8082111561212b57600081816101000a81549060ff021916905550600101612108565b5090565b9056fea165627a7a72305820a2c2becc5cf04c55446028b9127aaf3805bad477d2f66b35a37d357abd0d589e0029",
  "source": "pragma solidity ^0.5.0;\n\nimport \"./SafeMath.sol\";\nimport \"./WitnetBridgeInterface.sol\";\n\ncontract Ethpain {\n\n  using SafeMath for uint256;\n\n  WitnetBridgeInterface wbi;\n\n  address owner;\n  string public name;\n  uint total_seats;\n  uint256 total_funding;\n  // bytes public election_wdr;\n\n  struct Party {\n    bytes32 label;\n    string fake_name;\n    string emoji;\n    string description;\n    uint seats;\n  }\n\n  struct Proposal {\n    string description;\n    string data_request;\n  }\n\n  struct Program {\n    uint256[] id_proposals;\n    uint[] percentages;\n    bool[] claimed;\n  }\n\n  address[] public parties;\n  mapping (bytes32 => address) party_addresses;\n\n  mapping (address => Party) party_map;\n  mapping (address => Program) program_map;\n  mapping (uint256 => Proposal) proposal_map;\n\n  constructor (address _wbi, string memory _name, uint _seats) public payable {\n    total_funding = msg.value;\n    total_seats = _seats;\n    wbi = WitnetBridgeInterface(_wbi);\n    owner = msg.sender;\n    name = _name;\n    // election_wdr = _election_wdr;\n    // wbi.post_dr(election_wdr);\n  }\n\n  function create_party(bytes32 _label, string memory _emoji, string memory _description, string memory _fake_name) public {\n    parties.push(msg.sender);\n    party_map[msg.sender].label = _label;\n    party_map[msg.sender].emoji = _emoji;\n    party_map[msg.sender].description = _description;\n    party_map[msg.sender].fake_name = _fake_name;\n    party_map[msg.sender].seats = 0;\n    party_addresses[_label] = msg.sender;\n  }\n\n  function read_party(address party_address) public view returns(bytes32 label, string memory emoji, string memory description, string memory fake_name, uint seats) {\n    return (party_map[msg.sender].label, party_map[msg.sender].emoji, party_map[msg.sender].description, party_map[party_address].fake_name, party_map[party_address].seats);\n  }\n\n  function create_proposal(string memory proposal_description, string memory proposal_dr) public returns(uint256 id) {\n    uint256 dr_id = wbi.post_dr(proposal_dr);\n    proposal_map[dr_id].description = proposal_description;\n    proposal_map[dr_id].data_request = proposal_dr;\n    return dr_id;\n  }\n\n  function read_proposal(uint256 id) public view returns(string memory description, string memory dr) {\n    return (proposal_map[id].description, proposal_map[id].data_request);\n  }\n\n  function create_program(uint256[] memory id_proposals, uint256[] memory percentages) public {\n    program_map[msg.sender].id_proposals = id_proposals;\n    program_map[msg.sender].percentages = percentages;\n\n    uint len = id_proposals.length;\n    bool[] memory _claimed = new bool[](len);\n\n    program_map[msg.sender].claimed = _claimed;\n  }\n\n  function list_parties() public view returns (address[] memory _parties) {\n    return parties;\n  }\n\n  function read_program(address party_address) public view returns(uint256[] memory proposal_ids, uint[] memory percentages) {\n    return (program_map[party_address].id_proposals, program_map[party_address].percentages);\n  }\n\n  function read_proposal_result(uint256 id) public view returns(bool bool_result) {\n    return wbi.read_result(id);\n  }\n\n  function post_seats(bytes32[] memory _labels, uint[] memory _seats) public {\n    uint len = _labels.length;\n    for (uint i = 0; i < len; i++) {\n      address party_address = party_addresses[_labels[i]];\n\n      party_map[party_address].seats = _seats[i];\n    }\n  }\n\n  function claim_funds(uint256 _proposal_id) public returns(uint256 funds) {\n    bool succeded = read_proposal_result(_proposal_id);\n    require(succeded);\n\n    uint _seats = party_map[msg.sender].seats;\n\n    uint _len = program_map[msg.sender].id_proposals.length;\n    uint256 _percent = 0;\n    uint index = 0;\n    for (uint i = 0; i < _len; i++) {\n      if (program_map[msg.sender].id_proposals[i] == _proposal_id) {\n        require(!program_map[msg.sender].claimed[i]);\n        _percent = program_map[msg.sender].percentages[i];\n        index = i;\n        break;\n      }\n    }\n    uint256 claimed_funds = total_funding.mul(_seats).mul(_percent).div(total_seats).div(100);\n    msg.sender.transfer(claimed_funds);\n\n    program_map[msg.sender].claimed[index] = true;\n\n    return claimed_funds;\n  }\n}\n",
  "sourcePath": "/home/cyric/git/ffzz/ffzz-contracts/contracts/Ethpain.sol",
  "compiler": {
    "name": "solc",
    "version": "0.5.0+commit.1d4f565a.Emscripten.clang"
  },
  "schemaVersion": "3.0.9",
  "updatedAt": "2019-05-25T18:34:29.775Z",
  "devdoc": {
    "methods": {}
  },
  "userdoc": {
    "methods": {}
  }
}