{
  "contractName": "WitnetBridgeInterface",
  "abi": [
    {
      "constant": true,
      "inputs": [
        {
          "name": "",
          "type": "uint256"
        }
      ],
      "name": "requests",
      "outputs": [
        {
          "name": "script",
          "type": "string"
        },
        {
          "name": "result",
          "type": "bool"
        },
        {
          "name": "reward",
          "type": "uint256"
        }
      ],
      "payable": false,
      "stateMutability": "view",
      "type": "function"
    },
    {
      "inputs": [
        {
          "name": "",
          "type": "uint256"
        }
      ],
      "payable": false,
      "stateMutability": "view",
      "type": "function",
      "constant": true,
      "name": "election_requests",
      "outputs": [
        {
          "name": "script",
          "type": "string"
        },
        {
          "name": "result",
          "type": "uint256"
        },
        {
          "name": "reward",
          "type": "uint256"
        }
      ]
    },
    {
      "anonymous": false,
      "inputs": [
        {
          "indexed": true,
          "name": "_from",
          "type": "address"
        },
        {
          "indexed": false,
          "name": "id",
          "type": "uint256"
        }
      ],
      "name": "PostDataRequest",
      "type": "constructor",
      "payable": false,
      "stateMutability": "nonpayable"
    },
    {
      "anonymous": false,
      "inputs": [
        {
          "indexed": true,
          "name": "_from",
          "type": "address"
        },
        {
          "indexed": false,
          "name": "id",
          "type": "uint256"
        }
      ],
      "name": "PostDataRequest",
      "type": "event"
    },
    {
      "constant": false,
      "inputs": [
        {
          "name": "_from",
          "type": "address",
          "indexed": true
        },
        {
          "indexed": false,
          "name": "id",
          "type": "uint256"
        }
      ],
      "name": "PostResult",
      "outputs": [
        {
          "name": "id",
          "type": "uint256"
        }
      ],
      "payable": true,
      "stateMutability": "payable",
      "type": "event",
      "anonymous": false
    },
    {
      "constant": false,
      "inputs": [
        {
          "name": "dr",
          "type": "string"
        }
      ],
      "name": "post_dr",
      "outputs": [
        {
          "name": "id",
          "type": "uint256"
        }
      ],
      "payable": true,
      "stateMutability": "payable",
      "type": "function"
    },
    {
      "constant": true,
      "inputs": [
        {
          "name": "id",
          "type": "uint256"
        },
        {
          "name": "result",
          "type": "bool"
        }
      ],
      "name": "read_dr",
      "outputs": [
        {
          "name": "dr",
          "type": "string"
        }
      ],
      "payable": false,
      "stateMutability": "view",
      "type": "function"
    },
    {
      "constant": false,
      "inputs": [
        {
          "name": "id",
          "type": "uint256"
        },
        {
          "name": "result",
          "type": "bool"
        }
      ],
      "name": "report_result",
      "outputs": [
        {
          "name": "result",
          "type": "bool"
        }
      ],
      "payable": false,
      "stateMutability": "nonpayable",
      "type": "function"
    },
    {
      "constant": false,
      "inputs": [
        {
          "name": "id",
          "type": "uint256"
        },
        {
          "name": "result",
          "type": "uint256"
        }
      ],
      "name": "report_result_election",
      "outputs": [],
      "payable": false,
      "stateMutability": "nonpayable",
      "type": "function"
    },
    {
      "constant": true,
      "inputs": [
        {
          "name": "id",
          "type": "uint256"
        }
      ],
      "name": "read_result",
      "outputs": [
        {
          "name": "result",
          "type": "bool"
        }
      ],
      "payable": false,
      "stateMutability": "view",
      "type": "function"
    },
    {
      "constant": true,
      "inputs": [
        {
          "name": "id",
          "type": "uint256"
        }
      ],
      "name": "read_result_election",
      "outputs": [
        {
          "name": "result",
          "type": "uint256"
        }
      ],
      "payable": false,
      "stateMutability": "view",
      "type": "function"
    }
  ],
  "bytecode": "0x608060405234801561001057600080fd5b5060008081905550610a8a806100276000396000f3fe60806040526004361061008e576000357c0100000000000000000000000000000000000000000000000000000000900463ffffffff1680631b3a27f2146100935780631d8b7cc6146100d85780635a77518b1461012b57806381d12c58146101df57806395538fd2146102a55780639982a9be146102f4578063bbf193ea1461033b578063c8794e01146103fd575b600080fd5b34801561009f57600080fd5b506100d6600480360360408110156100b657600080fd5b8101908080359060200190929190803590602001909291905050506104cc565b005b3480156100e457600080fd5b50610111600480360360208110156100fb57600080fd5b8101908080359060200190929190505050610596565b604051808215151515815260200191505060405180910390f35b34801561013757600080fd5b506101646004803603602081101561014e57600080fd5b81019080803590602001909291905050506105c3565b6040518080602001828103825283818151815260200191508051906020019080838360005b838110156101a4578082015181840152602081019050610189565b50505050905090810190601f1680156101d15780820380516001836020036101000a031916815260200191505b509250505060405180910390f35b3480156101eb57600080fd5b506102186004803603602081101561020257600080fd5b810190808035906020019092919050505061067b565b604051808060200184151515158152602001838152602001828103825285818151815260200191508051906020019080838360005b8381101561026857808201518184015260208101905061024d565b50505050905090810190601f1680156102955780820380516001836020036101000a031916815260200191505b5094505050505060405180910390f35b3480156102b157600080fd5b506102de600480360360208110156102c857600080fd5b810190808035906020019092919050505061074a565b6040518082815260200191505060405180910390f35b34801561030057600080fd5b506103396004803603604081101561031757600080fd5b810190808035906020019092919080351515906020019092919050505061076a565b005b34801561034757600080fd5b506103746004803603602081101561035e57600080fd5b8101908080359060200190929190505050610847565b6040518080602001848152602001838152602001828103825285818151815260200191508051906020019080838360005b838110156103c05780820151818401526020810190506103a5565b50505050905090810190601f1680156103ed5780820380516001836020036101000a031916815260200191505b5094505050505060405180910390f35b6104b66004803603602081101561041357600080fd5b810190808035906020019064010000000081111561043057600080fd5b82018360208201111561044257600080fd5b8035906020019184600183028401116401000000008311171561046457600080fd5b91908080601f016020809104026020016040519081016040528093929190818152602001838380828437600081840152601f19601f820116905080830192505050505050509192919290505050610909565b6040518082815260200191505060405180910390f35b8060026000848152602001908152602001600020600101819055503373ffffffffffffffffffffffffffffffffffffffff166108fc60026000858152602001908152602001600020600201549081150290604051600060405180830381858888f19350505050158015610543573d6000803e3d6000fd5b503373ffffffffffffffffffffffffffffffffffffffff167f78423bac2cff45e827d34894fb5ee8ca5c7fa29b547487907d7e84457b113299836040518082815260200191505060405180910390a25050565b60006001600083815260200190815260200160002060010160009054906101000a900460ff169050919050565b6060600160008381526020019081526020016000206000018054600181600116156101000203166002900480601f01602080910402602001604051908101604052809291908181526020018280546001816001161561010002031660029004801561066f5780601f106106445761010080835404028352916020019161066f565b820191906000526020600020905b81548152906001019060200180831161065257829003601f168201915b50505050509050919050565b6001602052806000526040600020600091509050806000018054600181600116156101000203166002900480601f0160208091040260200160405190810160405280929190818152602001828054600181600116156101000203166002900480156107275780601f106106fc57610100808354040283529160200191610727565b820191906000526020600020905b81548152906001019060200180831161070a57829003601f168201915b5050505050908060010160009054906101000a900460ff16908060020154905083565b600060026000838152602001908152602001600020600101549050919050565b806001600084815260200190815260200160002060010160006101000a81548160ff0219169083151502179055503373ffffffffffffffffffffffffffffffffffffffff166108fc60016000858152602001908152602001600020600201549081150290604051600060405180830381858888f193505050501580156107f4573d6000803e3d6000fd5b503373ffffffffffffffffffffffffffffffffffffffff167f78423bac2cff45e827d34894fb5ee8ca5c7fa29b547487907d7e84457b113299836040518082815260200191505060405180910390a25050565b6002602052806000526040600020600091509050806000018054600181600116156101000203166002900480601f0160208091040260200160405190810160405280929190818152602001828054600181600116156101000203166002900480156108f35780601f106108c8576101008083540402835291602001916108f3565b820191906000526020600020905b8154815290600101906020018083116108d657829003601f168201915b5050505050908060010154908060020154905083565b6000806000815480929190600101919050559050816001600083815260200190815260200160002060000190805190602001906109479291906109b9565b503460016000838152602001908152602001600020600201819055503373ffffffffffffffffffffffffffffffffffffffff167fcf1533ed093ea4ecd1abdb7c4aeec88ad87b26afef4c722a681c8650227b90d5826040518082815260200191505060405180910390a2809050919050565b828054600181600116156101000203166002900490600052602060002090601f016020900481019282601f106109fa57805160ff1916838001178555610a28565b82800160010185558215610a28579182015b82811115610a27578251825591602001919060010190610a0c565b5b509050610a359190610a39565b5090565b610a5b91905b80821115610a57576000816000905550600101610a3f565b5090565b9056fea165627a7a72305820597dd3b38d26cb21a2c3086e9d847632e1d6c9e9db9db71f9722c67281da28170029",
  "source": "pragma solidity ^0.5.0;\n\ncontract WitnetBridgeInterface {\n\n  struct DataRequest {\n    string script;\n    bool result;\n    uint256 reward;\n  }\n\n  struct ElectionDataRequest {\n    string script;\n    uint result;\n    uint256 reward;\n  }\n\n  uint256 counter;\n  mapping (uint256 => DataRequest) public requests;\n  mapping (uint256 => ElectionDataRequest) public election_requests;\n\n  event PostDataRequest(address indexed _from, uint256 id);\n  event PostResult(address indexed _from, uint256 id);\n\n  constructor () public\n  {\n    counter = 0;\n  }\n\n  function post_dr (string memory dr) public payable returns(uint256 id) {\n    id = counter++;\n    requests[id].script = dr;\n    // requests[id].result = \"\";\n    requests[id].reward = msg.value;\n    emit PostDataRequest(msg.sender, id);\n    return id;\n  }\n\n  function read_dr (uint256 id) public view returns(string memory dr) {\n    return requests[id].script;\n  }\n\n  function report_result (uint256 id, bool result) public {\n    requests[id].result = result;\n    msg.sender.transfer(requests[id].reward);\n    emit PostResult(msg.sender, id);\n  }\n\n  function report_result_election (uint256 id, uint result) public {\n    election_requests[id].result = result;\n    msg.sender.transfer(election_requests[id].reward);\n    emit PostResult(msg.sender, id);\n  }\n\n  function read_result (uint256 id) public view returns(bool result){\n    return requests[id].result;\n  }\n\n  function read_result_election (uint256 id) public view returns(uint result){\n    return election_requests[id].result;\n  }\n}\n",
  "sourcePath": "/home/tomastrg/development/ffzz-contracts/contracts/WitnetBridgeInterface.sol",
  "compiler": {
    "name": "solc",
    "version": "0.5.0+commit.1d4f565a.Emscripten.clang"
  },
  "schemaVersion": "3.0.9",
  "updatedAt": "2019-05-25T21:44:10.144Z",
  "devdoc": {
    "methods": {}
  },
  "userdoc": {
    "methods": {}
  }
}