{
  "contractName": "WitnetBridgeInterface",
  "abi": [
    {
      "constant": true,
      "inputs": [
        {
          "name": "",
          "type": "uint256"
        }
      ],
      "name": "requests",
      "outputs": [
        {
          "name": "script",
          "type": "string"
        },
        {
          "name": "result",
          "type": "bool"
        },
        {
          "name": "reward",
          "type": "uint256"
        }
      ],
      "payable": false,
      "stateMutability": "view",
      "type": "function"
    },
    {
      "inputs": [],
      "payable": false,
      "stateMutability": "nonpayable",
      "type": "constructor"
    },
    {
      "anonymous": false,
      "inputs": [
        {
          "indexed": true,
          "name": "_from",
          "type": "address"
        },
        {
          "indexed": false,
          "name": "id",
          "type": "uint256"
        }
      ],
      "name": "PostDataRequest",
      "type": "event"
    },
    {
      "anonymous": false,
      "inputs": [
        {
          "indexed": true,
          "name": "_from",
          "type": "address"
        },
        {
          "indexed": false,
          "name": "id",
          "type": "uint256"
        }
      ],
      "name": "PostResult",
      "type": "event"
    },
    {
      "constant": false,
      "inputs": [
        {
          "name": "dr",
          "type": "string"
        }
      ],
      "name": "post_dr",
      "outputs": [
        {
          "name": "id",
          "type": "uint256"
        }
      ],
      "payable": true,
      "stateMutability": "payable",
      "type": "function"
    },
    {
      "constant": true,
      "inputs": [
        {
          "name": "id",
          "type": "uint256"
        }
      ],
      "name": "read_dr",
      "outputs": [
        {
          "name": "dr",
          "type": "string"
        }
      ],
      "payable": false,
      "stateMutability": "view",
      "type": "function"
    },
    {
      "constant": false,
      "inputs": [
        {
          "name": "id",
          "type": "uint256"
        },
        {
          "name": "result",
          "type": "bool"
        }
      ],
      "name": "report_result",
      "outputs": [],
      "payable": false,
      "stateMutability": "nonpayable",
      "type": "function"
    },
    {
      "constant": true,
      "inputs": [
        {
          "name": "id",
          "type": "uint256"
        }
      ],
      "name": "read_result",
      "outputs": [
        {
          "name": "result",
          "type": "bool"
        }
      ],
      "payable": false,
      "stateMutability": "view",
      "type": "function"
    }
  ],
  "bytecode": "0x608060405234801561001057600080fd5b5060008081905550610767806100276000396000f3fe60806040526004361061006d576000357c0100000000000000000000000000000000000000000000000000000000900463ffffffff1680631d8b7cc6146100725780635a77518b146100c557806381d12c58146101795780639982a9be1461023f578063c8794e0114610286575b600080fd5b34801561007e57600080fd5b506100ab6004803603602081101561009557600080fd5b8101908080359060200190929190505050610355565b604051808215151515815260200191505060405180910390f35b3480156100d157600080fd5b506100fe600480360360208110156100e857600080fd5b8101908080359060200190929190505050610382565b6040518080602001828103825283818151815260200191508051906020019080838360005b8381101561013e578082015181840152602081019050610123565b50505050905090810190601f16801561016b5780820380516001836020036101000a031916815260200191505b509250505060405180910390f35b34801561018557600080fd5b506101b26004803603602081101561019c57600080fd5b810190808035906020019092919050505061043a565b604051808060200184151515158152602001838152602001828103825285818151815260200191508051906020019080838360005b838110156102025780820151818401526020810190506101e7565b50505050905090810190601f16801561022f5780820380516001836020036101000a031916815260200191505b5094505050505060405180910390f35b34801561024b57600080fd5b506102846004803603604081101561026257600080fd5b8101908080359060200190929190803515159060200190929190505050610509565b005b61033f6004803603602081101561029c57600080fd5b81019080803590602001906401000000008111156102b957600080fd5b8201836020820111156102cb57600080fd5b803590602001918460018302840111640100000000831117156102ed57600080fd5b91908080601f016020809104026020016040519081016040528093929190818152602001838380828437600081840152601f19601f8201169050808301925050505050505091929192905050506105e6565b6040518082815260200191505060405180910390f35b60006001600083815260200190815260200160002060010160009054906101000a900460ff169050919050565b6060600160008381526020019081526020016000206000018054600181600116156101000203166002900480601f01602080910402602001604051908101604052809291908181526020018280546001816001161561010002031660029004801561042e5780601f106104035761010080835404028352916020019161042e565b820191906000526020600020905b81548152906001019060200180831161041157829003601f168201915b50505050509050919050565b6001602052806000526040600020600091509050806000018054600181600116156101000203166002900480601f0160208091040260200160405190810160405280929190818152602001828054600181600116156101000203166002900480156104e65780601f106104bb576101008083540402835291602001916104e6565b820191906000526020600020905b8154815290600101906020018083116104c957829003601f168201915b5050505050908060010160009054906101000a900460ff16908060020154905083565b806001600084815260200190815260200160002060010160006101000a81548160ff0219169083151502179055503373ffffffffffffffffffffffffffffffffffffffff166108fc60016000858152602001908152602001600020600201549081150290604051600060405180830381858888f19350505050158015610593573d6000803e3d6000fd5b503373ffffffffffffffffffffffffffffffffffffffff167f78423bac2cff45e827d34894fb5ee8ca5c7fa29b547487907d7e84457b113299836040518082815260200191505060405180910390a25050565b600080600081548092919060010191905055905081600160008381526020019081526020016000206000019080519060200190610624929190610696565b503460016000838152602001908152602001600020600201819055503373ffffffffffffffffffffffffffffffffffffffff167fcf1533ed093ea4ecd1abdb7c4aeec88ad87b26afef4c722a681c8650227b90d5826040518082815260200191505060405180910390a2809050919050565b828054600181600116156101000203166002900490600052602060002090601f016020900481019282601f106106d757805160ff1916838001178555610705565b82800160010185558215610705579182015b828111156107045782518255916020019190600101906106e9565b5b5090506107129190610716565b5090565b61073891905b8082111561073457600081600090555060010161071c565b5090565b9056fea165627a7a72305820e570537b8fe1b22f63030de616c3e2a483c99086c66de987d1c22069dae0c9490029",
  "source": "pragma solidity ^0.5.0;\n\ncontract WitnetBridgeInterface {\n\n  struct DataRequest {\n    string script;\n    bool result;\n    uint256 reward;\n  }\n\n  uint256 counter;\n  mapping (uint256 => DataRequest) public requests;\n\n  event PostDataRequest(address indexed _from, uint256 id);\n  event PostResult(address indexed _from, uint256 id);\n\n  constructor () public\n  {\n    counter = 0;\n  }\n\n  function post_dr (string memory dr) public payable returns(uint256 id) {\n    id = counter++;\n    requests[id].script = dr;\n    // requests[id].result = \"\";\n    requests[id].reward = msg.value;\n    emit PostDataRequest(msg.sender, id);\n    return id;\n  }\n\n  function read_dr (uint256 id) public view returns(string memory dr) {\n    return requests[id].script;\n  }\n\n  function report_result (uint256 id, bool result) public {\n    requests[id].result = result;\n    msg.sender.transfer(requests[id].reward);\n    emit PostResult(msg.sender, id);\n  }\n\n  function read_result (uint256 id) public view returns(bool result){\n    return requests[id].result;\n  }\n}\n",
  "sourcePath": "/home/cyric/git/ffzz/ffzz-contracts/contracts/WitnetBridgeInterface.sol",
  "compiler": {
    "name": "solc",
    "version": "0.5.0+commit.1d4f565a.Emscripten.clang"
  },
  "schemaVersion": "3.0.9",
  "updatedAt": "2019-05-25T18:34:29.103Z",
  "devdoc": {
    "methods": {}
  },
  "userdoc": {
    "methods": {}
  }
}